:020000040000FA
:100000000A128A11FC2F00308A000408840A820731
:1000100000346C343A3420346C3469346E346834CF
:1000200061342034203420342034203420342034EF
:100030002034003463343A34203463346F346C3405
:1000400075346E346134203420342034203420342C
:100050002034203400344634693462346F346E34D2
:1000600061346334633469343A34203420342034C6
:100070002034203420340034203420342034203400
:10008000483444343434343437343834303420341D
:1000900020342034203420340034733474347234E7
:1000A0003A34203473347434723469346E346734BF
:1000B00020342034203420342034003420342034C0
:1000C00069346E3469346334693461346C3469344E
:1000D0007A34613420342034203420340034203405
:1000E000203444346934733470346C34613479347A
:1000F00020344C344334443420342034203400340D
:10010000203464346934733470344C3443344434AC
:100110005F3469346E3469347434283429342034BB
:100120000034203444346934733470346C346134B2
:10013000793420344C3443344434203434346234FD
:100140002034003464346934733470344C344334B0
:10015000443428346C342C3463342C347334743485
:0601600072342934003462
:1007040001300A128A110D250A128A110800F50017
:100714007508F40006300310F40DFF3E031D8D2B05
:10072400730874077F39803E0A128A110D250A1254
:100734008A110800AB2B0130F0020030031CF103D6
:10074400F102C730F200A62BF20BA52BA92BAA2B82
:10075400AB2B70087104031DB02BB12B9D2BB22B56
:10076400080083160313081188110812881208134D
:10077400881383120313881528300A128A110D2551
:100784000A128A110C300A128A110D250A128A11D2
:1007940001300A128A110D250A128A1102300A1236
:1007A4008A110D250A128A110800F200831203131C
:1007B40008157208F00004300310F00CFF3E031D0E
:1007C400DE2B7008F100F10E080871060F3971066E
:1007D400880088110D30F000F00BEE2B8312031308
:1007E4008815081572080F39F000F00E0808700615
:1007F4000F397006880088110D30F000F00B002CC2
:100804008312031388150800FA007608F8007808A4
:10081400F9007608F8007808F3007A080A128A11B9
:1008240089230A128A112B2C770884000A128A1150
:1008340003200A128A110A128A11D7230A128A1172
:100844000130F8007808F7070130F8007808F90754
:100854002B2C770884000A128A1103200A128A11A9
:10086400003A031D362C372C162C382C0800F601C0
:10087400F31F3D2C3E2C462CF209F309F20A03190E
:10088400F30AF601F60A462CF11F492C4A2C502C87
:10089400F009F109F00A0319F10A502C70087104E7
:1008A4000319552C562C8B2CF501F50A652C0130B7
:1008B4000310F00DF10DFF3E031D5A2C0130F4001E
:1008C4007408F507652CF11F682C692C592C6B2CC6
:1008D4006B2C71087302031D712C70087202031CC7
:1008E400742C752C7C2C7008F2027108031CF30321
:1008F400F3027C2C01300310F10CF00CFF3E031DBD
:100904007D2C0130F502031D882C892C6B2C8B2C3B
:100914008B2C760803198F2C902C962CF209F30952
:10092400F20A0319F30A962C7308F1007208F00016
:100934009B2C0800F601F11FA02CA12CA92CF00976
:10094400F109F00A0319F10AF601F60AA92CF31FBA
:10095400AC2CAD2CB72CF209F309F20A0319F30AF3
:100964000130F4007408F606B72CF701F80170089A
:1009740071040319BE2CBF2CFC2CF501F50ACE2CF6
:1009840001300310F00DF10DFF3E031DC32C0130A7
:10099400F4007408F507CE2CF11FD12CD22CC22CF4
:1009A400D42CD42C01300310F70DF80DFF3E031D99
:1009B400D52C71087302031DE12C70087202031C0C
:1009C400E42CE52CED2C7008F2027108031CF303EF
:1009D400F3027714ED2C01300310F10CF00CFF3E00
:1009E400031DEE2C0130F502031DF92CFA2CD42C36
:1009F400FC2CFC2C76080319002D012D072DF7097A
:100A0400F809F70A0319F80A072D7808F10077089E
:100A1400F0000C2D0800F200831203130811720871
:100A2400F00004300310F00CFF3E031D142D700879
:100A3400F100F10E080871060F397106880088115B
:100A440072030319262D272D2E2D02307206031D45
:100A54002C2D2D2D382D2E2D0330F1009730F00044
:100A6400F00B322DF10B322D372D3D2D0D30F000D2
:100A7400F00B3A2D3D2D831203138815F0307205C7
:100A8400F00020307006031D482D492D632D0811F8
:100A94007208F00004300310F00CFF3E031D4D2DCE
:100AA4007008F100F10E080871060F39710688000C
:100AB40088110D30F000F00B5D2D8312031388159F
:100AC400632D081172080F39F000F00E0808700643
:100AD4000F3970068800881172030319722D732D63
:100AE4007A2D02307206031D782D792D842D7A2DEE
:100AF4000330F1009730F000F00B7E2DF10B7E2DCA
:100B0400832D892D0D30F000F00B862D892D831255
:100B140003138815080083120313A300FB1B932DF2
:100B2400952D0130962D0030A0002008A500250841
:100B340003199D2D9E2DA42DFA09FB09FA0A031908
:100B4400FB0AA42D7908A0002008F30023080A1248
:100B54008A1189230A128A11103083120313A60002
:100B64002730A7000530A0002008A400E82D831238
:100B740003132708F1002608F0007B08F3007A0825
:100B8400F2000A128A119C240A128A117008710454
:100B9400031DCD2DCE2D002E013083120313A4028C
:100BA400D42D002E0A30F0000030F1002708F300A5
:100BB4002608F2000A128A119C240A128A1171086A
:100BC40083120313A7007008A600E82D2708803AB3
:100BD400FF0080307F02031DF12D0130260203182F
:100BE400F42DF52DB92D002E002E20300A128A1175
:100BF400D7230A128A110130FC02002E8312031338
:100C040024082507A000A101A10D2108803AA20013
:100C140080302202031D102E7C0820020318132E9C
:100C2400142E1C2E02307C020318192E1A2EF72DB6
:100C34001C2E1C2E8312031325080319222E232E87
:100C44002A2E2D300A128A11D7230A128A112A2E2B
:100C5400831203132708F1002608F0007B08F30031
:100C64007A08F2000A128A119C240A128A11700866
:100C7400303E0A128A11D7230A128A1183120313EF
:100C84002708F1002608F0007B08F3007A08F20038
:100C94000A128A1139240A128A117108FB00700899
:100CA400FA000A30F0000030F10083120313270821
:100CB400F3002608F2000A128A119C240A128A11EF
:100CC400710883120313A7007008A6002708803A4E
:100CD400FF0080307F02031D712E013026020318AD
:100CE400742E752E2A2E762E080083120313B0015B
:100CF400B1010130AE000030AF00AC01AD01AA017A
:100D0400AB010A128A11B3230A128A11D02FD02FF1
:100D1400F601893083120313A8002808F700003075
:100D24000A128A1106240A128A110130831203134B
:100D3400B0000030B100E830F0000330F1000A12D6
:100D44008A119C230A128A11D02FF601343083129F
:100D54000313A8002808F70001300A128A11062498
:100D64000A128A11023083120313B0000030B1005A
:100D7400D030F0000730F1000A128A119C230A12C5
:100D84008A11D02F0A128A1182230A128A1103307F
:100D940083120313B0000030B100F430F0000130CE
:100DA400F1000A128A119C230A128A11D02FF6012B
:100DB400783083120313A8002808F70000300A12C1
:100DC4008A1106240A128A11F6015630831203137B
:100DD400A8002808F70001300A128A1106240A1212
:100DE4008A11043083120313B0000030B100E830DC
:100DF400F0000330F1000A128A119C230A128A11AE
:100E0400D02FF6019A3083120313A8002808F700A4
:100E140000300A128A1106240A128A11F6010130DE
:100E240083120313A8002808F70001300A128A115C
:100E340006240A128A11053083120313B00000300D
:100E4400B100D030F0000730F1000A128A119C235F
:100E54000A128A11D02FF601123083120313A8004C
:100E64002808F70001300A128A1106240A128A118E
:100E7400063083120313B0000030B100E830F000F4
:100E84000330F1000A128A119C230A128A11D02F0E
:100E9400F601453083120313A8002808F700013037
:100EA4000A128A1106240A128A110A3083120313C1
:100EB400B0000030B100DC30F0000530F1000A125F
:100EC4008A119C230A128A11D02FF60167308312EB
:100ED4000313A8002808F70000300A128A11062418
:100EE4000A128A11F601233083120313A80028087A
:100EF400F70001300A128A1106240A128A11831299
:100F04000313AC01AD01AA01AB010130AE00003006
:100F1400AF000B30B0000030B100D02F2D08AB0073
:100F24002C08AA002F08AD002E08AC002A082C07B4
:100F3400AE002B0803182B0A2D07AF00AF1FA32FF9
:100F4400A42FA72FB001B101D02F0C30B000003076
:100F5400B100D02FD02F0B30A8002808F9002F089B
:100F6400FB002E08FA000530A9002908FC00013016
:100F74000A128A118D250A128A110B308312031367
:100F8400B0000030B100E830F0000330F1000A1284
:100F94008A119C230A128A11D02FD02F8312031393
:100FA4003108003A0319D72FD02F3008003A03191B
:100FB4008A2E013A0319A72E033A0319C42E013AC3
:100FC4000319D92E073A0319032F013A03192D2FB8
:100FD400033A03194A2F0C3A0319672F013A0319EC
:100FE400902F073A0319AD2FD02FD02FD02F0A12EC
:0C0FF4008A11002883010A128A11772E4E
:04400E00D4E0FFFFFC
:00000001FF
